:100000000C9462000C948A000C948A000C948A0070
:100010000C948A000C948A000C948A000C948A0038
:100020000C948A000C948A000C948A000C948A0028
:100030000C948A000C948A000C948A000C948A0018
:100040000C9487030C948A000C948A000C948A0008
:100050000C948A000C948A000C948A000C948A00F8
:100060000C946C020C948A0000000000250028000B
:100070002B0000000000240027002A0000000000E0
:1000800023002600290004040404040404040202DA
:100090000202020203030303030301020408102007
:1000A0004080010204081020010204081020000012
:1000B0000008000201000003040700000000000027
:1000C00000000A0511241FBECFEFD8E0DEBFCDBF70
:1000D00011E0A0E0B1E0E6EEFBE002C005900D9279
:1000E000A231B107D9F721E0A2E1B1E001C01D9230
:1000F000A83BB207E1F710E0C2E6D0E004C02197C8
:10010000FE010E94DC05C136D107C9F70E941B051C
:100110000C946B050C940000613208F05DC01092E5
:10012000B7019091B7019091B601911143C092E04F
:100130009093B60191E0909395019FEF9093940175
:100140001092930160939201A6E9B1E0E2E7F1E039
:1001500090E0691335C01092710190917101880F80
:10016000892B8093710180917001813069F5109223
:100170007001809171018093BB008091BC0083FD70
:10018000F8CF85EC8093BC001092B7018091B70145
:100190008091B6018230D1F0809194018F3FF1F0CF
:1001A000809194018032E1F0809194018033D1F00C
:1001B00084E008959091B7019F5F9093B701B1CF0C
:1001C0002D9121939F5FC5CF85EEDCCF8091B70144
:1001D0008F5F8093B701DACF81E0089580E00895C2
:1001E00082E0089583E0089560916F0180916E012F
:1001F0000E948C0010926D0110926F0110926C01A0
:10020000089585ED8093BC001092B7018091B701ED
:100210008091BC0084FD03C01092B60108958091C6
:10022000B7018F5F8093B701F1CF20913D01260F79
:100230003327331F21323105ECF42091B601FC0144
:1002400090E080E0243069F082E00895A0913D01C3
:100250002191AC01435E5E4FA40FB52FB11D2C93CD
:100260000196861798F380913D01680F60933D01D8
:1002700080E0089581E00895089581E090E0309154
:100280001C0120911B01321710F490E080E0919541
:1002900081959109089580911C0190911B01891706
:1002A00030F48F5F80931C0190E080E008958FEF21
:1002B0009FEF089580911B0190911C01891B990B60
:1002C0000895CF92DF92EF92FF920F931F93CF93F7
:1002D000DF937C01CB018A0120916C01222389F0FC
:1002E000EB016B01C40ED51ECC15DD0569F06991DB
:1002F000D701ED91FC910190F081E02DC7010995A6
:10030000F3CF642F0E941501C801DF91CF911F9197
:100310000F91FF90EF90DF90CF900895CF93DF93F0
:100320001F92CDB7DEB7698320916C012223F9F0CB
:1003300020916F01203258F021E030E0FC0133833E
:10034000228390E080E00F90DF91CF91089580911B
:100350006D01E82FF0E0EA56FE4F998190838F5FA0
:1003600080936D0180936F0181E090E0ECCF61E0BC
:10037000CE0101960E941501F7CF90E080E008952C
:10038000833081F028F4813099F08230A9F008950B
:100390008730A9F08830C9F08430B1F480918000B2
:1003A0008F7D03C0809180008F77809380000895B7
:1003B00084B58F7784BD089584B58F7DFBCF809100
:1003C000B0008F778093B00008958091B0008F7D4A
:1003D000F9CFCF93DF93282F30E0F901E255FF4F9B
:1003E0008491F901E656FF4FD491F901EA57FF4F86
:1003F000C491CC2389F081110E94C001EC2FF0E060
:10040000EE0FFF1FE859FF4FA591B4918FB7F894F5
:10041000EC91DE2BDC938FBFDF91CF910895CF93CA
:10042000DF93CCEBD0E018821092B60181E080938C
:1004300095011092700182E10E94E90183E10E941E
:10044000E901E9EBF0E080818E7F808380818D7F00
:10045000808380E28093B80085E48883DF91CF9128
:100460000895789484B5826084BD84B5816084BD2C
:1004700085B5826085BD85B5816085BDEEE6F0E01D
:10048000808181608083E1E8F0E010828081826079
:100490008083808181608083E0E8F0E080818160FA
:1004A0008083E1EBF0E0808184608083E0EBF0E02A
:1004B000808181608083EAE7F0E0808184608083CE
:1004C00080818260808380818E7F8083808180684C
:1004D00080831092C10008951F920F920FB60F9261
:1004E00011242F933F934F935F936F937F938F9339
:1004F0009F93AF93BF93EF93FF938091B900887F51
:10050000803609F44AC0F0F5883209F4A5C018F520
:10051000803109F499C0B8F4882309F4F5C0883013
:1005200009F492C0FF91EF91BF91AF919F918F918C
:100530007F916F915F914F913F912F910F900FBEDF
:100540000F901F901895883109F486C0803251F7BA
:100550008093940114C0803409F49BC040F480332C
:10056000B9F38833F9F68093940185ECAEC08035F9
:1005700009F483C0883509F494C0883499F60E9440
:100580000101D0CF883909F48AC038F5883729F0BD
:1005900050F4883611F0803729F683E08093B60155
:1005A00010925F0155C0883809F479C0803919F07C
:1005B000803809F0B7CF80915F01803208F06FC0BA
:1005C000E0915F0181E08E0F80935F018091BB001D
:1005D000F0E0E15CFE4F80833BC0803B39F0D0F41B
:1005E000803A09F477C0883A09F09CCF84E0809380
:1005F000B60110923E0110923D01F0E0E0E0099555
:1006000080913D0181110FC081E080933D011092E6
:100610001D0109C0803C09F4A8CF883C09F4A5CF8E
:10062000883B09F07FCFE0913E0181E08E0F8093FF
:100630003E01F0E0E35EFE4F80818093BB0090912D
:100640003E0180913D0129C0809171018093BB00E2
:1006500085EC8093BC0066CF9091930180919201CC
:10066000981758F5E091930181E08E0F80939301E4
:10067000F0E0EE58FE4F8081E9CFE091930181E0F8
:100680008E0F809393018091BB00F0E0EE58FE4FF7
:10069000808390919301809192019817C8F285E828
:1006A000D8CFE091930181E08E0F809393018091E8
:1006B000BB00F0E0EE58FE4F8083809195018111E0
:1006C0005ECF81E08093700184EA8093BC00109239
:1006D000B60128CF85EC8093BC001092B6018091C2
:1006E0005F01803230F4E0915F01F0E0E15CFE4FA9
:1006F000108260915F0170E08FE391E0F0E0E0E054
:10070000099510925F010ECF1092940138CF1F927D
:100710000F920FB60F9211242F933F938F939F93B5
:10072000AF93BF938091130190911401A091150193
:10073000B09116013091120126E0230F2D3758F5A4
:100740000296A11DB11D2093120180931301909375
:100750001401A0931501B093160180911701909197
:100760001801A0911901B0911A010196A11DB11DA6
:100770008093170190931801A0931901B0931A0167
:10078000BF91AF919F918F913F912F910F900FBE8D
:100790000F901F90189529E8230F0396A11DB11DF6
:1007A000D2CFCF93DF93EAEAF0E02491E6E9F0E0DC
:1007B00084918823C1F090E0880F991FFC01EE58C6
:1007C000FF4FC591D491FC01E859FF4FA591B49119
:1007D0009FB7F8948881E22FE0958E2388838C91CF
:1007E000E823EC939FBFDF91CF910895CF93DF93E0
:1007F000EEEBF0E08491EAEAF0E0D491E6E9F0E093
:10080000C491CC23A1F081110E94C001EC2FF0E033
:10081000EE0FFF1FE458FF4FA591B491EC91ED232B
:1008200081E090E009F480E0DF91CF91089580E0CD
:1008300090E0FACF3FB7F89480911701909118019A
:10084000A0911901B0911A0126B5A89B05C02F3FB0
:1008500019F00196A11DB11D3FBFBA2FA92F982FE6
:100860008827BC01CD01620F711D811D911D43E0E0
:10087000660F771F881F991F4A95D1F70895CF9269
:10088000DF92EF92FF92CF930E94F603892BE1F360
:100890000E94F6030197E1F30E941A046B017C01A8
:1008A000C0E40E94F603892BE1F30E94F60301974E
:1008B000E1F3C150B1F70E941A049B01AC012C195D
:1008C0003D094E095F09A0E5B0E00E94AF0521E7B0
:1008D00032E040E050E00E949005C901CF91FF90C6
:1008E000EF90DF90CF900895AF92BF92CF92DF92BA
:1008F000EF92FF920F931F93CF93DF9300D000D01E
:10090000CDB7DEB780916600803819F480E580931A
:1009100066000E943F046C010091660080916600B1
:1009200021E4C2162FE1D2060CF448C08F5F8093F9
:100930006600760110E080E4A82E8FE1B82E0E94B8
:100940003F04AC0140545F4181343FE193071CF404
:10095000A501481B590B21E4E2162FE1F20684F1B0
:10096000970120543F41421753071CF40091660041
:100970007C01112349F180E8800F843008F448C0DD
:1009800085E089838C830A8300950B8344E050E0E3
:1009900070E060E0CE0101960E946E05812F0F90FD
:1009A0000F900F900F90DF91CF911F910F91FF90BB
:1009B000EF90DF90CF90BF90AF9008958150B7CF68
:1009C00095012E193F09CFCF31E4C3163FE1D3067D
:1009D000A4F021E080343FE193070CF020E0309157
:1009E0006600313819F480349F41C4F68091660066
:1009F000815080936600122FA2CF11E081349F4175
:100A00000CF410E0809166008F5F8093660097CFB2
:100A100010E0C4CFE0E6F1E01382128288EE93E0AA
:100A2000A0E0B0E084839583A683B78384E091E05F
:100A30009183808308950E9431020FB6F894A8959F
:100A400080916000886180936000109260000FBE0A
:100A500010921C0110921B0110926F010E940F0254
:100A600088E680936E010E94F400811133C081E01A
:100A700080936C0110926D0110926F01E091600102
:100A8000F09161010190F081E02D6EE080E691E04F
:100A90000995E0916001F09161010190F081E02DF4
:100AA00068E480E691E009950E94F4000E94D10379
:100AB0000E943F040E947404811105C080E5809368
:100AC00066000E947404C0E0D0E02097F1F30E9419
:100AD0000000FBCFFFCFF8940C94F105DC01A40FCC
:100AE000B51F4150504048F0CB01840F951F2E9107
:100AF0000E947F0541505040D0F70895262FF99964
:100B0000FECF92BD81BDF89A019700B4021639F06C
:100B10001FBA20BD0FB6F894FA9AF99A0FBE08953D
:100B2000052E97FB1EF400940E94A70557FD07D0E1
:100B30000E94BA0507FC03D04EF40C94A70550950B
:100B40004095309521953F4F4F4F5F4F08959095B9
:100B50008095709561957F4F8F4F9F4F08950E94AC
:100B6000E205A59F900DB49F900DA49F800D911D4F
:100B700011240895A1E21A2EAA1BBB1BFD010DC072
:100B8000AA1FBB1FEE1FFF1FA217B307E407F5073D
:100B900020F0A21BB30BE40BF50B661F771F881F19
:100BA000991F1A9469F760957095809590959B01AF
:100BB000AC01BD01CF010895EE0FFF1F0590F49128
:100BC000E02D0994A29FB001B39FC001A39F700DB7
:100BD000811D1124911DB29F700D811D1124911D45
:060BE0000895F894FFCF18
:100BE600000000008E016101BD013C015A014B016C
:020BF6003D01BF
:00000001FF
